:10103500D2AF12109B1209F1E4F50874352508F8B2
:10104500E6FFAE087401A806088002C333D8FCF495
:10105500FD120F5D0508E508C3940440DEE525642F
:10106500056003120CD012000EE522B4010EE53125
:10107500B52309E532B52404C28480B9D28480B58C
:100F5D00E525600964026005E525B40408BDFD05BD
:100F6D00300002803CE525B40108BDFD05300002CE
:100F7D00802FE525B40308BDFD053000028022E574
:100F8D0025B4050DE521B40108BDFD053000028035
:100F9D0010E525B40516E521B40211BDFD0E300096
:100FAD000BEF9010A993547FF5908007EF9010A947
:100FBD0093F590ED52807F647E001210B743800F41
:010FCD002201
:1009F100E52564016003020A8E200145C200AE2A8A
:100A0100AF2B7C037DE8120FE07C007D0A120FE022
:100A11008D35AE2AAF2B7C007D64120FE07C007D0A
:100A21000A120FE08D36AE2AAF2B7C007D0A120F21
:100A3100E07C007D0A120FE08D37AE2AAF2B020C4D
:100A4100B7D200AE33AF347C007D0A120FE07C00D8
:100A51007D0A120FE08D35E535700375350BAE3328
:100A6100AF347C007D0A120FE08D36AE2FAF307CA3
:100A7100007D0A120FE07C007D0A120FE08D37E540
:100A810037700375370BAE2FAF30020CB7E5257009
:100A910026E53175F00A8475F00A8485F035E53173
:100AA10075F00A8485F036E53275F00A8475F00A2E
:100AB1008485F037020CC6E52564027033D200E567
:100AC1002E75F00A8475F00A8485F035E52E75F0EF
:100AD1000A8485F036AE28AF297C007D0A120FE02A
:100AE1007C007D0A120FE08D37AE28AF29020CB7CA
:100AF100E5256403703DD200AE26AF27FC7D0A12C6
:100B01000FE07C007D0A120FE08D35AE26AF277C09
:100B1100007D0A120FE08D36AE3BAF3C7C007D0AB2
:100B2100120FE07C007D0A120FE08D37AE3BAF3C27
:100B3100020CB7E52564047074E52C7014C20075CD
:100B4100350C75360DF537300403020C9F852238BC
:100B510022D200E52CB4010830040575350B800D57
:100B6100E52375F00A8475F00A8485F035E52CB427
:100B7100020830040575360B8009E52375F00A84F7
:100B810085F036E52CB4030830040575370B800D6C
:100B9100E52475F00A8475F00A8485F037E52CB4F4
:100BA1000406300403020C9FE524020CC8E5256409
:100BB100056003020CCFE5217004C200800DE52120
:100BC10064016005E521B40202D200E52D70083010
:100BD100050575350B803BE521700AAE2AAF2B7CEC
:100BE100037DE8800DE521B40116AE33AF347C00FE
:100BF1007D0A120FE07C007D0A120FE08D35801214
:100C0100E521B4020DE53175F00A8475F00A848599
:100C1100F035E52DB4010830050575360B8032E558
:100C210021700CAE2AAF2BFC7D64120FE08009E528
:100C310021B4010FAE33AF347C007D0A120FE08D79
:100C410036800EE521B40209E53175F00A8485F09C
:100C510036E52DB4020830050575370B8038E521DE
:100C61007007AE2AAF2BFC800BE521B40116AE2F25
:100C7100AF307C007D0A120FE07C007D0A120FE08C
:100C81008D378012E521B4020DE53275F00A8475C5
:100C9100F00A8485F037E52DB40307300504753873
:100CA1000B22E5217007AE2AAF2BFC800BE521B4A6
:100CB100010EAE2FAF307C007D0A120FE08D38227D
:0F0CC100E521B40209E53275F00A8485F0382286
:0B10B700EF1FAC0670011E4C70F6220B
:0E109B00438901758CD8758AF0D28CD2A922B7
:03000B00020DEFF4
:100DEF00C0E0C0D0758CD8758AF0E5256405600821
:100DFF000529E52970020528C3E5299464E528949F
:100E0F00004008052E752800752900E525701F057F
:100E1F003CE53C7002053BC39432E53B9400500324
:100E2F00020ECC753B00753C00B200020ECCE525DE
:100E3F00B4011B053CE53C7002053BC39496E53BB2
:100E4F0094004079753B00753C00B201806FE52539
:100E5F00B4032C300208053CE53C7002053BC3E5AA
:100E6F003C9464E53B94004054753B00753C00E5B1
:100E7F0025640370480527E52770020526803EE5A7
:100E8F0025B4041B053CE53C7002053BC3941EE5ED
:100E9F003B94004028753B00753C00B204801EE572
:100EAF0025B40519053CE53C7002053BC3941EE5CE
:100EBF003B94004008753B00753C00B205D0D0D084
:020ECF00E0320F
:100CD000E52EC3943C40050532E4F52EE532C3947D
:100CE0003C40050531E4F532E531C39418400BE48E
:100CF000F5310530E5307002052FD3E5349407E572
:100D00003394005048E534640245336040E53030A8
:100D1000E01C941FE52F94005003020DD5752F00A1
:100D20007530010534E53470210533020DD5D3E566
:100D300030941EE52F94005003020DD5752F0075D9
:100D400030010534E53470020533020DD5C3E534B6
:100D50009408E53394004039E53030E019D3941E0F
:100D6000E52F9400406F752F007530010534E53490
:100D700070020533805FD3E530941FE52F94004067
:100D800054752F007530010534E534704805338003
:100D900044E53464024533703CE52B540364017030
:100DA0001BD3E530941DE52F94004029752F007565
:100DB00030010534E534701D05338019D3E53094D6
:100DC0001CE52F9400400E752F007530010534E5A9
:100DD0003470020533D3E534940CE5339400400EAF
:0F0DE000753300753401052BE52B7002052A22AF
:10000E0030A01130A10E30A20B30A30830A4053061
:10001E00A702D20330A0030204B22003030204B2EB
:10002E00C203E525C394035017E4F53BF53C0525C3
:10003E00E525C3940350030204B2E4F5250204B28D
:10004E00E525B40314B2022002030204B2E4F5263D
:10005E00F527F53BF53C0204B2E525640460030286
:10006E000160E52C7011E522B40106E4F5220204CC
:10007E00B27522010204B2E52C64017032E52375DB
:10008E00F00A8475F00A847A00ABF00BBB00010A0B
:10009E00C3EB9403EA940040027B02EB75F00AA4D2
:1000AE00FFE52375F00A84EF25F0F5230204B2E58F
:1000BE002C6402702EE52375F00A847A00ABF0E50D
:1000CE002375F00A84F5230BBB00010AC3EB940AD7
:1000DE00EA94004002E4FBE52375F00AA42BF52315
:1000EE000204B2E52C64037032E52475F00A8475BF
:1000FE00F00A847A00ABF00BBB00010AC3EB940646
:10010E00EA94004002E4FBEB75F00AA4FFE52475C7
:10011E00F00A84EF25F0F5240204B2E52C640460A5
:10012E00030204B2E52475F00A847A00ABF0E524EC
:10013E0075F00A84F5240BBB00010AC3EB940AEA9E
:10014E0094004002E4FBE52475F00AA42BF524028A
:10015E0004B2E525640560030204B2E52D600302D6
:10016E000251E5217044AE2AAF2B7C037DE8120FBD
:10017E00E07C007D0A120FE0AA04AB057C037DE84B
:10018E00AF03AE02120FCEC3E52B9FF52BE52A9ED1
:10019E00F52A0BBB00010AC3EB940AEA9400400354
:1001AE00E4FAFB7C037DE802035CE52164017054F4
:1001BE00AE33AF34FC7D0A120FE07C007D0A120FC5
:1001CE00E0AA04AB057C007D0AAF03AE02120FCE8F
:1001DE00C3E5349FF534E5339EF5330BBB00010ABE
:1001EE00C3EB9402EA94004003E4FAFB7C007D0A20
:1001FE00AF03AE02120FCEE5342FF534E5333EF5E4
:10020E00330204B2E521640260030204B2E53175E3
:10021E00F00A8475F00A847A00ABF0EB75F00AA44C
:10022E00FFC3E5319FF5310BBB00010AC3EB94030D
:10023E00EA94004002E4FBEB75F00AA42531F53197
:10024E000204B2E52D6401600302030FE521704341
:10025E00AE2AAF2BFC7D64120FE07C007D0A120FDC
:10026E00E0AA04AB057C007D64AF03AE02120FCE94
:10027E00C3E52B9FF52BE52A9EF52A0BBB00010A41
:10028E00C3EB940AEA94004003E4FAFB7C007D641D
:10029E0002035CE521B40138AE33AF347C007D0A35
:1002AE00120FE0AA04AB05C3E5349BF534E5339A8F
:1002BE00F5330BBB00010AC3EB940AEA940040032A
:1002CE00E4FAFBE5342BF534E5333AF5330204B2A8
:1002DE00E521640260030204B2E53175F00A847A06
:1002EE0000ABF0C3E5319BF5310BBB00010AC3EB4C
:1002FE00940AEA94004002E4FBE5312BF531020446
:10030E00B2E52D64026003020409E5217054AE2AA1
:10031E00AF2BFC7D0A120FE07C007D0A120FE0AAC3
:10032E0004AB057C007D0AAF03AE02120FCEC3E50F
:10033E002B9FF52BE52A9EF52A0BBB00010AC3EB7A
:10034E00940AEA94004003E4FAFB7C007D0AAF03B2
:10035E00AE02120FCEE52B2FF52BE52A3EF52A0223
:10036E0004B2E52164017054AE2FAF30FC7D0A1249
:10037E000FE07C007D0A120FE0AA04AB057C007D25
:10038E000AAF03AE02120FCEC3E5309FF530E52F54
:10039E009EF52F0BBB00010AC3EB9404EA940040B8
:1003AE0003E4FAFB7C007D0AAF03AE02120FCEE52A
:1003BE00302FF530E52F3EF52F0204B2E521640211
:1003CE0060030204B2E53275F00A8475F00A847A8D
:1003DE0000ABF0EB75F00AA4FFC3E5329FF5320BCC
:1003EE00BB00010AC3EB9406EA94004002E4FBEB67
:1003FE0075F00AA42532F5320204B2E52D640360CD
:10040E00030204B2E5217036AE2AAF2BFC7D0A1230
:10041E000FE0AA04AB05C3E52B9BF52BE52A9AF555
:10042E002A0BBB00010AC3EB940AEA94004003E4D2
:10043E00FAFBE52B2BF52BE52A3AF52A8066E5210A
:10044E00B40137AE2FAF307C007D0A120FE0AA0444
:10045E00AB05C3E5309BF530E52F9AF52F0BBB00AE
:10046E00010AC3EB940AEA94004003E4FAFBE53078
:10047E002BF530E52F3AF52F802AE521B40225E53C
:10048E003275F00A847A00ABF0C3E5329BF5320B7D
:10049E00BB00010AC3EB940AEA94004002E4FBE5B8
:1004AE00322BF53230A1030209362003030209363E
:1004BE00C203E525B40306E4F52502092BE5256400
:1004CE000460030205C4E52C7011E522B40106E4B4
:1004DE00F52202092B75220102092BE52C6401700D
:1004EE0032E52375F00A8475F00A847A00ABF0EBDE
:1004FE001B70011AC3EB9403EA940040027B02EBDB
:10050E0075F00AA4FFE52375F00A84EF25F0F523B4
:10051E0002092BE52C6402702EE52375F00A847A0D
:10052E0000ABF0E52375F00A84F523EB1B70011A7E
:10053E00C3EB940AEA940040027B09E52375F00AA6
:10054E00A42BF52302092BE52C64037032E52475E8
:10055E00F00A8475F00A847A00ABF0EB1B70011A76
:10056E00C3EB9406EA940040027B05EB75F00AA4F7
:10057E00FFE52475F00A84EF25F0F52402092BE53A
:10058E002C6404600302092BE52475F00A847A00BA
:10059E00ABF0E52475F00A84F524EB1B70011AC349
:1005AE00EB940AEA940040027B09E52475F00AA454
:1005BE002BF52402092BE52564056003020921E5CC
:1005CE002D60030206B7E5217045AE2AAF2B7C03E2
:1005DE007DE8120FE07C007D0A120FE0AA04AB0545
:1005EE007C037DE8AF03AE02120FCEC3E52B9FF561
:1005FE002BE52A9EF52AEB1B70011AC3EB940AEA2F
:10060E00940040047A007B097C037DE80207C5E56F
:10061E002164017055AE33AF34FC7D0A120FE07CBD
:10062E00007D0A120FE0AA04AB057C007D0AAF0321
:10063E00AE02120FCEC3E5349FF534E5339EF5338B
:10064E00EB1B70011AC3EB9402EA940040047A008B
:10065E007B017C007D0AAF03AE02120FCEE5342F74
:10066E00F534E5333EF53302092BE52164026003D0
:10067E0002092BE53175F00A8475F00A847A00AB15
:10068E00F0EB75F00AA4FFC3E5319FF531EB1B705B
:10069E00011AC3EB9403EA940040027B02EB75F05F
:1006AE000AA42531F53102092BE52D640160030200
:1006BE000777E5217044AE2AAF2BFC7D64120FE064
:1006CE007C007D0A120FE0AA04AB057C007D64AFAE
:1006DE0003AE02120FCEC3E52B9FF52BE52A9EF536
:1006EE002AEB1B70011AC3EB940AEA940040047AB9
:1006FE00007B097C007D640207C5E521B40139AE9B
:10070E0033AF347C007D0A120FE0AA04AB05C3E5BB
:10071E00349BF534E5339AF533EB1B70011AC3EBBA
:10072E00940AEA940040047A007B09E5342BF534F0
:10073E00E5333AF53302092BE52164026003020921
:10074E002BE53175F00A847A00ABF0C3E5319BF5E9
:10075E0031EB1B70011AC3EB940AEA940040027B42
:10076E0009E5312BF53102092BE52D6402600302F8
:10077E000873E5217055AE2AAF2BFC7D0A120FE0EF
:10078E007C007D0A120FE0AA04AB057C007D0AAF47
:10079E0003AE02120FCEC3E52B9FF52BE52A9EF575
:1007AE002AEB1B70011AC3EB940AEA940040047AF8
:1007BE00007B097C007D0AAF03AE02120FCEE52B43
:1007CE002FF52BE52A3EF52A02092BE5216401704F
:1007DE0055AE2FAF30FC7D0A120FE07C007D0A1261
:1007EE000FE0AA04AB057C007D0AAF03AE02120F28
:1007FE00CEC3E5309FF530E52F9EF52FEB1B700134
:10080E001AC3EB9404EA940040047A007B037C0044
:10081E007D0AAF03AE02120FCEE5302FF530E52F75
:10082E003EF52F02092BE5216402600302092BE538
:10083E003275F00A8475F00A847A00ABF0EB75F02D
:10084E000AA4FFC3E5329FF532EB1B70011AC3EB0E
:10085E009406EA940040027B05EB75F00AA425325B
:10086E00F53202092BE52D6403600302092BE52105
:10087E007037AE2AAF2BFC7D0A120FE0AA04AB052F
:10088E00C3E52B9BF52BE52A9AF52AEB1B70011A73
:10089E00C3EB940AEA940040047A007B09E52B2B03
:1008AE00F52BE52A3AF52A8074E521B40138AE2FEE
:1008BE00AF307C007D0A120FE0AA04AB05C3E53011
:1008CE009BF530E52F9AF52FEB1B70011AC3EB94B5
:1008DE000AEA940040047A007B09E5302BF530E5F6
:1008EE002F3AF52F8037E52164027031E53275F02D
:1008FE000A847A00ABF0C3E5329BF532EB1B700134
:10090E001AC3EB940AEA940040027B09E5322BF5F8
:10091E0032800AE525C394035003752503E4F526BA
:10092E00F527F53BF53CC20220A24230033FC2033D
:10093E00E525B40407E4F525F52C8031E525B4054D
:10094E0019052DE52DC394044023E4F52D0521E56D
:10095E002194034018E4F5218013E525B40304B275
:10096E0002800AE525C39403500375250420A331A4
:10097E0030032EC203E525C39403500AE4F521F596
:10098E002D752505801BE525B4040E052CE52CC31D
:10099E009405400DE4F52C8008E525B40503E4F537
:1009AE002520A435300332C203E525B4051A152DD2
:1009BE00E52DC394005022752D031521E521C39416
:1009CE000050167521028011E525B4040C152CE596
:1009DE002CC394005003752C0420A706300303E4A7
:0209EE00F525ED
:0109F00022E4
:0E10A900C0F9A4B0999282F88090BFFFC6C72C
:1010850001310C01320C012E00022A07E502330062
:0510950001022F00081C
:03000000020ED11C
:0C0ED100787FE4F6D8FD75813C020F1814
:100FCE00EF8DF0A4A8F0CF8CF0A428CE8DF0A42E37
:020FDE00FE22F1
:100FE000BC000BBE0029EF8DF084FFADF022E4CCF5
:100FF000F875F008EF2FFFEE33FEEC33FCEE9DECBE
:10100000984005FCEE9DFE0FD5F0E9E4CEFD22ED03
:10101000F8F5F0EE8420D21CFEADF075F008EF2F4D
:10102000FFED33FD4007985006D5F0F222C398FD3E
:051030000FD5F0EA22DB
:100EDD00021035E493A3F8E493A34003F68001F2E6
:100EED0008DFF48029E493A3F85407240CC8C33316
:100EFD00C4540F4420C8834004F456800146F6DFE5
:100F0D00E4800B0102040810204080901085E47EDF
:100F1D00019360BCA3FF543F30E509541FFEE493D9
:100F2D00A360010ECF54C025E060A840B8E493A3A0
:100F3D00FAE493A3F8E493A3C8C582C8CAC583CACB
:100F4D00F0A3C8C582C8CAC583CADFE9DEE780BE83
:01109A000055
:00000001FF
